{
	"contracts/Calculator.sol": {
		"Calculator": {
			"abi": [
				{
					"inputs": [],
					"stateMutability": "nonpayable",
					"type": "constructor"
				},
				{
					"inputs": [
						{
							"internalType": "uint256",
							"name": "num",
							"type": "uint256"
						}
					],
					"name": "add",
					"outputs": [],
					"stateMutability": "nonpayable",
					"type": "function"
				},
				{
					"inputs": [
						{
							"internalType": "uint256",
							"name": "num",
							"type": "uint256"
						}
					],
					"name": "divide",
					"outputs": [],
					"stateMutability": "nonpayable",
					"type": "function"
				},
				{
					"inputs": [],
					"name": "getResult",
					"outputs": [
						{
							"internalType": "uint256",
							"name": "",
							"type": "uint256"
						}
					],
					"stateMutability": "view",
					"type": "function"
				},
				{
					"inputs": [
						{
							"internalType": "uint256",
							"name": "num",
							"type": "uint256"
						}
					],
					"name": "multiply",
					"outputs": [],
					"stateMutability": "nonpayable",
					"type": "function"
				},
				{
					"inputs": [
						{
							"internalType": "uint256",
							"name": "num",
							"type": "uint256"
						}
					],
					"name": "percentage",
					"outputs": [],
					"stateMutability": "nonpayable",
					"type": "function"
				},
				{
					"inputs": [
						{
							"internalType": "uint256",
							"name": "num",
							"type": "uint256"
						}
					],
					"name": "subtract",
					"outputs": [],
					"stateMutability": "nonpayable",
					"type": "function"
				}
			],
			"devdoc": {
				"kind": "dev",
				"methods": {},
				"version": 1
			},
			"evm": {
				"assembly": "    /* \"contracts/Calculator.sol\":278:1299  contract Calculator {... */\n  mstore(0x40, 0x80)\n    /* \"contracts/Calculator.sol\":391:432  constructor() {... */\n  callvalue\n  dup1\n  iszero\n  tag_1\n  jumpi\n  0x00\n  dup1\n  revert\ntag_1:\n  pop\n    /* \"contracts/Calculator.sol\":424:425  0 */\n  0x00\n    /* \"contracts/Calculator.sol\":415:421  result */\n  dup1\n    /* \"contracts/Calculator.sol\":415:425  result = 0 */\n  dup2\n  swap1\n  sstore\n  pop\n    /* \"contracts/Calculator.sol\":278:1299  contract Calculator {... */\n  dataSize(sub_0)\n  dup1\n  dataOffset(sub_0)\n  0x00\n  codecopy\n  0x00\n  return\nstop\n\nsub_0: assembly {\n        /* \"contracts/Calculator.sol\":278:1299  contract Calculator {... */\n      mstore(0x40, 0x80)\n      callvalue\n      dup1\n      iszero\n      tag_1\n      jumpi\n      0x00\n      dup1\n      revert\n    tag_1:\n      pop\n      jumpi(tag_2, lt(calldatasize, 0x04))\n      shr(0xe0, calldataload(0x00))\n      dup1\n      0x1003e2d2\n      eq\n      tag_3\n      jumpi\n      dup1\n      0x1dc05f17\n      eq\n      tag_4\n      jumpi\n      dup1\n      0x3e823f79\n      eq\n      tag_5\n      jumpi\n      dup1\n      0xc6888fa1\n      eq\n      tag_6\n      jumpi\n      dup1\n      0xde292789\n      eq\n      tag_7\n      jumpi\n      dup1\n      0xe27fd8ec\n      eq\n      tag_8\n      jumpi\n    tag_2:\n      0x00\n      dup1\n      revert\n        /* \"contracts/Calculator.sol\":484:547  function add(uint256 num) public {... */\n    tag_3:\n      tag_9\n      0x04\n      dup1\n      calldatasize\n      sub\n      dup2\n      add\n      swap1\n      tag_10\n      swap2\n      swap1\n      tag_11\n      jump\t// in\n    tag_10:\n      tag_12\n      jump\t// in\n    tag_9:\n      stop\n        /* \"contracts/Calculator.sol\":606:674  function subtract(uint256 num) public {... */\n    tag_4:\n      tag_13\n      0x04\n      dup1\n      calldatasize\n      sub\n      dup2\n      add\n      swap1\n      tag_14\n      swap2\n      swap1\n      tag_11\n      jump\t// in\n    tag_14:\n      tag_15\n      jump\t// in\n    tag_13:\n      stop\n        /* \"contracts/Calculator.sol\":854:972  function divide(uint256 num) public {... */\n    tag_5:\n      tag_16\n      0x04\n      dup1\n      calldatasize\n      sub\n      dup2\n      add\n      swap1\n      tag_17\n      swap2\n      swap1\n      tag_11\n      jump\t// in\n    tag_17:\n      tag_18\n      jump\t// in\n    tag_16:\n      stop\n        /* \"contracts/Calculator.sol\":731:799  function multiply(uint256 num) public {... */\n    tag_6:\n      tag_19\n      0x04\n      dup1\n      calldatasize\n      sub\n      dup2\n      add\n      swap1\n      tag_20\n      swap2\n      swap1\n      tag_11\n      jump\t// in\n    tag_20:\n      tag_21\n      jump\t// in\n    tag_19:\n      stop\n        /* \"contracts/Calculator.sol\":1216:1297  function getResult() public view returns (uint256) {... */\n    tag_7:\n      tag_22\n      tag_23\n      jump\t// in\n    tag_22:\n      mload(0x40)\n      tag_24\n      swap2\n      swap1\n      tag_25\n      jump\t// in\n    tag_24:\n      mload(0x40)\n      dup1\n      swap2\n      sub\n      swap1\n      return\n        /* \"contracts/Calculator.sol\":1040:1168  function percentage(uint256 num) public {... */\n    tag_8:\n      tag_26\n      0x04\n      dup1\n      calldatasize\n      sub\n      dup2\n      add\n      swap1\n      tag_27\n      swap2\n      swap1\n      tag_11\n      jump\t// in\n    tag_27:\n      tag_28\n      jump\t// in\n    tag_26:\n      stop\n        /* \"contracts/Calculator.sol\":484:547  function add(uint256 num) public {... */\n    tag_12:\n        /* \"contracts/Calculator.sol\":537:540  num */\n      dup1\n        /* \"contracts/Calculator.sol\":527:533  result */\n      0x00\n      dup1\n        /* \"contracts/Calculator.sol\":527:540  result += num */\n      dup3\n      dup3\n      sload\n      tag_30\n      swap2\n      swap1\n      tag_31\n      jump\t// in\n    tag_30:\n      swap3\n      pop\n      pop\n      dup2\n      swap1\n      sstore\n      pop\n        /* \"contracts/Calculator.sol\":484:547  function add(uint256 num) public {... */\n      pop\n      jump\t// out\n        /* \"contracts/Calculator.sol\":606:674  function subtract(uint256 num) public {... */\n    tag_15:\n        /* \"contracts/Calculator.sol\":664:667  num */\n      dup1\n        /* \"contracts/Calculator.sol\":654:660  result */\n      0x00\n      dup1\n        /* \"contracts/Calculator.sol\":654:667  result -= num */\n      dup3\n      dup3\n      sload\n      tag_33\n      swap2\n      swap1\n      tag_34\n      jump\t// in\n    tag_33:\n      swap3\n      pop\n      pop\n      dup2\n      swap1\n      sstore\n      pop\n        /* \"contracts/Calculator.sol\":606:674  function subtract(uint256 num) public {... */\n      pop\n      jump\t// out\n        /* \"contracts/Calculator.sol\":854:972  function divide(uint256 num) public {... */\n    tag_18:\n        /* \"contracts/Calculator.sol\":915:916  0 */\n      0x00\n        /* \"contracts/Calculator.sol\":908:911  num */\n      dup2\n        /* \"contracts/Calculator.sol\":908:916  num != 0 */\n      sub\n        /* \"contracts/Calculator.sol\":900:942  require(num != 0, \"Cannot divide by zero\") */\n      tag_36\n      jumpi\n      mload(0x40)\n      0x08c379a000000000000000000000000000000000000000000000000000000000\n      dup2\n      mstore\n      0x04\n      add\n      tag_37\n      swap1\n      tag_38\n      jump\t// in\n    tag_37:\n      mload(0x40)\n      dup1\n      swap2\n      sub\n      swap1\n      revert\n    tag_36:\n        /* \"contracts/Calculator.sol\":962:965  num */\n      dup1\n        /* \"contracts/Calculator.sol\":952:958  result */\n      0x00\n      dup1\n        /* \"contracts/Calculator.sol\":952:965  result /= num */\n      dup3\n      dup3\n      sload\n      tag_39\n      swap2\n      swap1\n      tag_40\n      jump\t// in\n    tag_39:\n      swap3\n      pop\n      pop\n      dup2\n      swap1\n      sstore\n      pop\n        /* \"contracts/Calculator.sol\":854:972  function divide(uint256 num) public {... */\n      pop\n      jump\t// out\n        /* \"contracts/Calculator.sol\":731:799  function multiply(uint256 num) public {... */\n    tag_21:\n        /* \"contracts/Calculator.sol\":789:792  num */\n      dup1\n        /* \"contracts/Calculator.sol\":779:785  result */\n      0x00\n      dup1\n        /* \"contracts/Calculator.sol\":779:792  result *= num */\n      dup3\n      dup3\n      sload\n      tag_42\n      swap2\n      swap1\n      tag_43\n      jump\t// in\n    tag_42:\n      swap3\n      pop\n      pop\n      dup2\n      swap1\n      sstore\n      pop\n        /* \"contracts/Calculator.sol\":731:799  function multiply(uint256 num) public {... */\n      pop\n      jump\t// out\n        /* \"contracts/Calculator.sol\":1216:1297  function getResult() public view returns (uint256) {... */\n    tag_23:\n        /* \"contracts/Calculator.sol\":1258:1265  uint256 */\n      0x00\n        /* \"contracts/Calculator.sol\":1284:1290  result */\n      dup1\n      sload\n        /* \"contracts/Calculator.sol\":1277:1290  return result */\n      swap1\n      pop\n        /* \"contracts/Calculator.sol\":1216:1297  function getResult() public view returns (uint256) {... */\n      swap1\n      jump\t// out\n        /* \"contracts/Calculator.sol\":1040:1168  function percentage(uint256 num) public {... */\n    tag_28:\n        /* \"contracts/Calculator.sol\":1105:1106  0 */\n      0x00\n        /* \"contracts/Calculator.sol\":1098:1101  num */\n      dup2\n        /* \"contracts/Calculator.sol\":1098:1106  num != 0 */\n      sub\n        /* \"contracts/Calculator.sol\":1090:1138  require(num != 0, \"Cannot take modulus by zero\") */\n      tag_46\n      jumpi\n      mload(0x40)\n      0x08c379a000000000000000000000000000000000000000000000000000000000\n      dup2\n      mstore\n      0x04\n      add\n      tag_47\n      swap1\n      tag_48\n      jump\t// in\n    tag_47:\n      mload(0x40)\n      dup1\n      swap2\n      sub\n      swap1\n      revert\n    tag_46:\n        /* \"contracts/Calculator.sol\":1158:1161  num */\n      dup1\n        /* \"contracts/Calculator.sol\":1148:1154  result */\n      0x00\n      dup1\n        /* \"contracts/Calculator.sol\":1148:1161  result %= num */\n      dup3\n      dup3\n      sload\n      tag_49\n      swap2\n      swap1\n      tag_50\n      jump\t// in\n    tag_49:\n      swap3\n      pop\n      pop\n      dup2\n      swap1\n      sstore\n      pop\n        /* \"contracts/Calculator.sol\":1040:1168  function percentage(uint256 num) public {... */\n      pop\n      jump\t// out\n        /* \"#utility.yul\":88:205   */\n    tag_52:\n        /* \"#utility.yul\":197:198   */\n      0x00\n        /* \"#utility.yul\":194:195   */\n      dup1\n        /* \"#utility.yul\":187:199   */\n      revert\n        /* \"#utility.yul\":334:411   */\n    tag_54:\n        /* \"#utility.yul\":371:378   */\n      0x00\n        /* \"#utility.yul\":400:405   */\n      dup2\n        /* \"#utility.yul\":389:405   */\n      swap1\n      pop\n        /* \"#utility.yul\":334:411   */\n      swap2\n      swap1\n      pop\n      jump\t// out\n        /* \"#utility.yul\":417:539   */\n    tag_55:\n        /* \"#utility.yul\":490:514   */\n      tag_71\n        /* \"#utility.yul\":508:513   */\n      dup2\n        /* \"#utility.yul\":490:514   */\n      tag_54\n      jump\t// in\n    tag_71:\n        /* \"#utility.yul\":483:488   */\n      dup2\n        /* \"#utility.yul\":480:515   */\n      eq\n        /* \"#utility.yul\":470:533   */\n      tag_72\n      jumpi\n        /* \"#utility.yul\":529:530   */\n      0x00\n        /* \"#utility.yul\":526:527   */\n      dup1\n        /* \"#utility.yul\":519:531   */\n      revert\n        /* \"#utility.yul\":470:533   */\n    tag_72:\n        /* \"#utility.yul\":417:539   */\n      pop\n      jump\t// out\n        /* \"#utility.yul\":545:684   */\n    tag_56:\n        /* \"#utility.yul\":591:596   */\n      0x00\n        /* \"#utility.yul\":629:635   */\n      dup2\n        /* \"#utility.yul\":616:636   */\n      calldataload\n        /* \"#utility.yul\":607:636   */\n      swap1\n      pop\n        /* \"#utility.yul\":645:678   */\n      tag_74\n        /* \"#utility.yul\":672:677   */\n      dup2\n        /* \"#utility.yul\":645:678   */\n      tag_55\n      jump\t// in\n    tag_74:\n        /* \"#utility.yul\":545:684   */\n      swap3\n      swap2\n      pop\n      pop\n      jump\t// out\n        /* \"#utility.yul\":690:1019   */\n    tag_11:\n        /* \"#utility.yul\":749:755   */\n      0x00\n        /* \"#utility.yul\":798:800   */\n      0x20\n        /* \"#utility.yul\":786:795   */\n      dup3\n        /* \"#utility.yul\":777:784   */\n      dup5\n        /* \"#utility.yul\":773:796   */\n      sub\n        /* \"#utility.yul\":769:801   */\n      slt\n        /* \"#utility.yul\":766:885   */\n      iszero\n      tag_76\n      jumpi\n        /* \"#utility.yul\":804:883   */\n      tag_77\n      tag_52\n      jump\t// in\n    tag_77:\n        /* \"#utility.yul\":766:885   */\n    tag_76:\n        /* \"#utility.yul\":924:925   */\n      0x00\n        /* \"#utility.yul\":949:1002   */\n      tag_78\n        /* \"#utility.yul\":994:1001   */\n      dup5\n        /* \"#utility.yul\":985:991   */\n      dup3\n        /* \"#utility.yul\":974:983   */\n      dup6\n        /* \"#utility.yul\":970:992   */\n      add\n        /* \"#utility.yul\":949:1002   */\n      tag_56\n      jump\t// in\n    tag_78:\n        /* \"#utility.yul\":939:1002   */\n      swap2\n      pop\n        /* \"#utility.yul\":895:1012   */\n      pop\n        /* \"#utility.yul\":690:1019   */\n      swap3\n      swap2\n      pop\n      pop\n      jump\t// out\n        /* \"#utility.yul\":1025:1143   */\n    tag_57:\n        /* \"#utility.yul\":1112:1136   */\n      tag_80\n        /* \"#utility.yul\":1130:1135   */\n      dup2\n        /* \"#utility.yul\":1112:1136   */\n      tag_54\n      jump\t// in\n    tag_80:\n        /* \"#utility.yul\":1107:1110   */\n      dup3\n        /* \"#utility.yul\":1100:1137   */\n      mstore\n        /* \"#utility.yul\":1025:1143   */\n      pop\n      pop\n      jump\t// out\n        /* \"#utility.yul\":1149:1371   */\n    tag_25:\n        /* \"#utility.yul\":1242:1246   */\n      0x00\n        /* \"#utility.yul\":1280:1282   */\n      0x20\n        /* \"#utility.yul\":1269:1278   */\n      dup3\n        /* \"#utility.yul\":1265:1283   */\n      add\n        /* \"#utility.yul\":1257:1283   */\n      swap1\n      pop\n        /* \"#utility.yul\":1293:1364   */\n      tag_82\n        /* \"#utility.yul\":1361:1362   */\n      0x00\n        /* \"#utility.yul\":1350:1359   */\n      dup4\n        /* \"#utility.yul\":1346:1363   */\n      add\n        /* \"#utility.yul\":1337:1343   */\n      dup5\n        /* \"#utility.yul\":1293:1364   */\n      tag_57\n      jump\t// in\n    tag_82:\n        /* \"#utility.yul\":1149:1371   */\n      swap3\n      swap2\n      pop\n      pop\n      jump\t// out\n        /* \"#utility.yul\":1377:1557   */\n    tag_58:\n        /* \"#utility.yul\":1425:1502   */\n      0x4e487b7100000000000000000000000000000000000000000000000000000000\n        /* \"#utility.yul\":1422:1423   */\n      0x00\n        /* \"#utility.yul\":1415:1503   */\n      mstore\n        /* \"#utility.yul\":1522:1526   */\n      0x11\n        /* \"#utility.yul\":1519:1520   */\n      0x04\n        /* \"#utility.yul\":1512:1527   */\n      mstore\n        /* \"#utility.yul\":1546:1550   */\n      0x24\n        /* \"#utility.yul\":1543:1544   */\n      0x00\n        /* \"#utility.yul\":1536:1551   */\n      revert\n        /* \"#utility.yul\":1563:1754   */\n    tag_31:\n        /* \"#utility.yul\":1603:1606   */\n      0x00\n        /* \"#utility.yul\":1622:1642   */\n      tag_85\n        /* \"#utility.yul\":1640:1641   */\n      dup3\n        /* \"#utility.yul\":1622:1642   */\n      tag_54\n      jump\t// in\n    tag_85:\n        /* \"#utility.yul\":1617:1642   */\n      swap2\n      pop\n        /* \"#utility.yul\":1656:1676   */\n      tag_86\n        /* \"#utility.yul\":1674:1675   */\n      dup4\n        /* \"#utility.yul\":1656:1676   */\n      tag_54\n      jump\t// in\n    tag_86:\n        /* \"#utility.yul\":1651:1676   */\n      swap3\n      pop\n        /* \"#utility.yul\":1699:1700   */\n      dup3\n        /* \"#utility.yul\":1696:1697   */\n      dup3\n        /* \"#utility.yul\":1692:1701   */\n      add\n        /* \"#utility.yul\":1685:1701   */\n      swap1\n      pop\n        /* \"#utility.yul\":1720:1723   */\n      dup1\n        /* \"#utility.yul\":1717:1718   */\n      dup3\n        /* \"#utility.yul\":1714:1724   */\n      gt\n        /* \"#utility.yul\":1711:1747   */\n      iszero\n      tag_87\n      jumpi\n        /* \"#utility.yul\":1727:1745   */\n      tag_88\n      tag_58\n      jump\t// in\n    tag_88:\n        /* \"#utility.yul\":1711:1747   */\n    tag_87:\n        /* \"#utility.yul\":1563:1754   */\n      swap3\n      swap2\n      pop\n      pop\n      jump\t// out\n        /* \"#utility.yul\":1760:1954   */\n    tag_34:\n        /* \"#utility.yul\":1800:1804   */\n      0x00\n        /* \"#utility.yul\":1820:1840   */\n      tag_90\n        /* \"#utility.yul\":1838:1839   */\n      dup3\n        /* \"#utility.yul\":1820:1840   */\n      tag_54\n      jump\t// in\n    tag_90:\n        /* \"#utility.yul\":1815:1840   */\n      swap2\n      pop\n        /* \"#utility.yul\":1854:1874   */\n      tag_91\n        /* \"#utility.yul\":1872:1873   */\n      dup4\n        /* \"#utility.yul\":1854:1874   */\n      tag_54\n      jump\t// in\n    tag_91:\n        /* \"#utility.yul\":1849:1874   */\n      swap3\n      pop\n        /* \"#utility.yul\":1898:1899   */\n      dup3\n        /* \"#utility.yul\":1895:1896   */\n      dup3\n        /* \"#utility.yul\":1891:1900   */\n      sub\n        /* \"#utility.yul\":1883:1900   */\n      swap1\n      pop\n        /* \"#utility.yul\":1922:1923   */\n      dup2\n        /* \"#utility.yul\":1916:1920   */\n      dup2\n        /* \"#utility.yul\":1913:1924   */\n      gt\n        /* \"#utility.yul\":1910:1947   */\n      iszero\n      tag_92\n      jumpi\n        /* \"#utility.yul\":1927:1945   */\n      tag_93\n      tag_58\n      jump\t// in\n    tag_93:\n        /* \"#utility.yul\":1910:1947   */\n    tag_92:\n        /* \"#utility.yul\":1760:1954   */\n      swap3\n      swap2\n      pop\n      pop\n      jump\t// out\n        /* \"#utility.yul\":1960:2129   */\n    tag_59:\n        /* \"#utility.yul\":2044:2055   */\n      0x00\n        /* \"#utility.yul\":2078:2084   */\n      dup3\n        /* \"#utility.yul\":2073:2076   */\n      dup3\n        /* \"#utility.yul\":2066:2085   */\n      mstore\n        /* \"#utility.yul\":2118:2122   */\n      0x20\n        /* \"#utility.yul\":2113:2116   */\n      dup3\n        /* \"#utility.yul\":2109:2123   */\n      add\n        /* \"#utility.yul\":2094:2123   */\n      swap1\n      pop\n        /* \"#utility.yul\":1960:2129   */\n      swap3\n      swap2\n      pop\n      pop\n      jump\t// out\n        /* \"#utility.yul\":2135:2306   */\n    tag_60:\n        /* \"#utility.yul\":2275:2298   */\n      0x43616e6e6f7420646976696465206279207a65726f0000000000000000000000\n        /* \"#utility.yul\":2271:2272   */\n      0x00\n        /* \"#utility.yul\":2263:2269   */\n      dup3\n        /* \"#utility.yul\":2259:2273   */\n      add\n        /* \"#utility.yul\":2252:2299   */\n      mstore\n        /* \"#utility.yul\":2135:2306   */\n      pop\n      jump\t// out\n        /* \"#utility.yul\":2312:2678   */\n    tag_61:\n        /* \"#utility.yul\":2454:2457   */\n      0x00\n        /* \"#utility.yul\":2475:2542   */\n      tag_97\n        /* \"#utility.yul\":2539:2541   */\n      0x15\n        /* \"#utility.yul\":2534:2537   */\n      dup4\n        /* \"#utility.yul\":2475:2542   */\n      tag_59\n      jump\t// in\n    tag_97:\n        /* \"#utility.yul\":2468:2542   */\n      swap2\n      pop\n        /* \"#utility.yul\":2551:2644   */\n      tag_98\n        /* \"#utility.yul\":2640:2643   */\n      dup3\n        /* \"#utility.yul\":2551:2644   */\n      tag_60\n      jump\t// in\n    tag_98:\n        /* \"#utility.yul\":2669:2671   */\n      0x20\n        /* \"#utility.yul\":2664:2667   */\n      dup3\n        /* \"#utility.yul\":2660:2672   */\n      add\n        /* \"#utility.yul\":2653:2672   */\n      swap1\n      pop\n        /* \"#utility.yul\":2312:2678   */\n      swap2\n      swap1\n      pop\n      jump\t// out\n        /* \"#utility.yul\":2684:3103   */\n    tag_38:\n        /* \"#utility.yul\":2850:2854   */\n      0x00\n        /* \"#utility.yul\":2888:2890   */\n      0x20\n        /* \"#utility.yul\":2877:2886   */\n      dup3\n        /* \"#utility.yul\":2873:2891   */\n      add\n        /* \"#utility.yul\":2865:2891   */\n      swap1\n      pop\n        /* \"#utility.yul\":2937:2946   */\n      dup2\n        /* \"#utility.yul\":2931:2935   */\n      dup2\n        /* \"#utility.yul\":2927:2947   */\n      sub\n        /* \"#utility.yul\":2923:2924   */\n      0x00\n        /* \"#utility.yul\":2912:2921   */\n      dup4\n        /* \"#utility.yul\":2908:2925   */\n      add\n        /* \"#utility.yul\":2901:2948   */\n      mstore\n        /* \"#utility.yul\":2965:3096   */\n      tag_100\n        /* \"#utility.yul\":3091:3095   */\n      dup2\n        /* \"#utility.yul\":2965:3096   */\n      tag_61\n      jump\t// in\n    tag_100:\n        /* \"#utility.yul\":2957:3096   */\n      swap1\n      pop\n        /* \"#utility.yul\":2684:3103   */\n      swap2\n      swap1\n      pop\n      jump\t// out\n        /* \"#utility.yul\":3109:3289   */\n    tag_62:\n        /* \"#utility.yul\":3157:3234   */\n      0x4e487b7100000000000000000000000000000000000000000000000000000000\n        /* \"#utility.yul\":3154:3155   */\n      0x00\n        /* \"#utility.yul\":3147:3235   */\n      mstore\n        /* \"#utility.yul\":3254:3258   */\n      0x12\n        /* \"#utility.yul\":3251:3252   */\n      0x04\n        /* \"#utility.yul\":3244:3259   */\n      mstore\n        /* \"#utility.yul\":3278:3282   */\n      0x24\n        /* \"#utility.yul\":3275:3276   */\n      0x00\n        /* \"#utility.yul\":3268:3283   */\n      revert\n        /* \"#utility.yul\":3295:3480   */\n    tag_40:\n        /* \"#utility.yul\":3335:3336   */\n      0x00\n        /* \"#utility.yul\":3352:3372   */\n      tag_103\n        /* \"#utility.yul\":3370:3371   */\n      dup3\n        /* \"#utility.yul\":3352:3372   */\n      tag_54\n      jump\t// in\n    tag_103:\n        /* \"#utility.yul\":3347:3372   */\n      swap2\n      pop\n        /* \"#utility.yul\":3386:3406   */\n      tag_104\n        /* \"#utility.yul\":3404:3405   */\n      dup4\n        /* \"#utility.yul\":3386:3406   */\n      tag_54\n      jump\t// in\n    tag_104:\n        /* \"#utility.yul\":3381:3406   */\n      swap3\n      pop\n        /* \"#utility.yul\":3425:3426   */\n      dup3\n        /* \"#utility.yul\":3415:3450   */\n      tag_105\n      jumpi\n        /* \"#utility.yul\":3430:3448   */\n      tag_106\n      tag_62\n      jump\t// in\n    tag_106:\n        /* \"#utility.yul\":3415:3450   */\n    tag_105:\n        /* \"#utility.yul\":3472:3473   */\n      dup3\n        /* \"#utility.yul\":3469:3470   */\n      dup3\n        /* \"#utility.yul\":3465:3474   */\n      div\n        /* \"#utility.yul\":3460:3474   */\n      swap1\n      pop\n        /* \"#utility.yul\":3295:3480   */\n      swap3\n      swap2\n      pop\n      pop\n      jump\t// out\n        /* \"#utility.yul\":3486:3896   */\n    tag_43:\n        /* \"#utility.yul\":3526:3533   */\n      0x00\n        /* \"#utility.yul\":3549:3569   */\n      tag_108\n        /* \"#utility.yul\":3567:3568   */\n      dup3\n        /* \"#utility.yul\":3549:3569   */\n      tag_54\n      jump\t// in\n    tag_108:\n        /* \"#utility.yul\":3544:3569   */\n      swap2\n      pop\n        /* \"#utility.yul\":3583:3603   */\n      tag_109\n        /* \"#utility.yul\":3601:3602   */\n      dup4\n        /* \"#utility.yul\":3583:3603   */\n      tag_54\n      jump\t// in\n    tag_109:\n        /* \"#utility.yul\":3578:3603   */\n      swap3\n      pop\n        /* \"#utility.yul\":3638:3639   */\n      dup3\n        /* \"#utility.yul\":3635:3636   */\n      dup3\n        /* \"#utility.yul\":3631:3640   */\n      mul\n        /* \"#utility.yul\":3660:3690   */\n      tag_110\n        /* \"#utility.yul\":3678:3689   */\n      dup2\n        /* \"#utility.yul\":3660:3690   */\n      tag_54\n      jump\t// in\n    tag_110:\n        /* \"#utility.yul\":3649:3690   */\n      swap2\n      pop\n        /* \"#utility.yul\":3839:3840   */\n      dup3\n        /* \"#utility.yul\":3830:3837   */\n      dup3\n        /* \"#utility.yul\":3826:3841   */\n      div\n        /* \"#utility.yul\":3823:3824   */\n      dup5\n        /* \"#utility.yul\":3820:3842   */\n      eq\n        /* \"#utility.yul\":3800:3801   */\n      dup4\n        /* \"#utility.yul\":3793:3802   */\n      iszero\n        /* \"#utility.yul\":3773:3856   */\n      or\n        /* \"#utility.yul\":3750:3889   */\n      tag_111\n      jumpi\n        /* \"#utility.yul\":3869:3887   */\n      tag_112\n      tag_58\n      jump\t// in\n    tag_112:\n        /* \"#utility.yul\":3750:3889   */\n    tag_111:\n        /* \"#utility.yul\":3534:3896   */\n      pop\n        /* \"#utility.yul\":3486:3896   */\n      swap3\n      swap2\n      pop\n      pop\n      jump\t// out\n        /* \"#utility.yul\":3902:4079   */\n    tag_63:\n        /* \"#utility.yul\":4042:4071   */\n      0x43616e6e6f742074616b65206d6f64756c7573206279207a65726f0000000000\n        /* \"#utility.yul\":4038:4039   */\n      0x00\n        /* \"#utility.yul\":4030:4036   */\n      dup3\n        /* \"#utility.yul\":4026:4040   */\n      add\n        /* \"#utility.yul\":4019:4072   */\n      mstore\n        /* \"#utility.yul\":3902:4079   */\n      pop\n      jump\t// out\n        /* \"#utility.yul\":4085:4451   */\n    tag_64:\n        /* \"#utility.yul\":4227:4230   */\n      0x00\n        /* \"#utility.yul\":4248:4315   */\n      tag_115\n        /* \"#utility.yul\":4312:4314   */\n      0x1b\n        /* \"#utility.yul\":4307:4310   */\n      dup4\n        /* \"#utility.yul\":4248:4315   */\n      tag_59\n      jump\t// in\n    tag_115:\n        /* \"#utility.yul\":4241:4315   */\n      swap2\n      pop\n        /* \"#utility.yul\":4324:4417   */\n      tag_116\n        /* \"#utility.yul\":4413:4416   */\n      dup3\n        /* \"#utility.yul\":4324:4417   */\n      tag_63\n      jump\t// in\n    tag_116:\n        /* \"#utility.yul\":4442:4444   */\n      0x20\n        /* \"#utility.yul\":4437:4440   */\n      dup3\n        /* \"#utility.yul\":4433:4445   */\n      add\n        /* \"#utility.yul\":4426:4445   */\n      swap1\n      pop\n        /* \"#utility.yul\":4085:4451   */\n      swap2\n      swap1\n      pop\n      jump\t// out\n        /* \"#utility.yul\":4457:4876   */\n    tag_48:\n        /* \"#utility.yul\":4623:4627   */\n      0x00\n        /* \"#utility.yul\":4661:4663   */\n      0x20\n        /* \"#utility.yul\":4650:4659   */\n      dup3\n        /* \"#utility.yul\":4646:4664   */\n      add\n        /* \"#utility.yul\":4638:4664   */\n      swap1\n      pop\n        /* \"#utility.yul\":4710:4719   */\n      dup2\n        /* \"#utility.yul\":4704:4708   */\n      dup2\n        /* \"#utility.yul\":4700:4720   */\n      sub\n        /* \"#utility.yul\":4696:4697   */\n      0x00\n        /* \"#utility.yul\":4685:4694   */\n      dup4\n        /* \"#utility.yul\":4681:4698   */\n      add\n        /* \"#utility.yul\":4674:4721   */\n      mstore\n        /* \"#utility.yul\":4738:4869   */\n      tag_118\n        /* \"#utility.yul\":4864:4868   */\n      dup2\n        /* \"#utility.yul\":4738:4869   */\n      tag_64\n      jump\t// in\n    tag_118:\n        /* \"#utility.yul\":4730:4869   */\n      swap1\n      pop\n        /* \"#utility.yul\":4457:4876   */\n      swap2\n      swap1\n      pop\n      jump\t// out\n        /* \"#utility.yul\":4882:5058   */\n    tag_50:\n        /* \"#utility.yul\":4914:4915   */\n      0x00\n        /* \"#utility.yul\":4931:4951   */\n      tag_120\n        /* \"#utility.yul\":4949:4950   */\n      dup3\n        /* \"#utility.yul\":4931:4951   */\n      tag_54\n      jump\t// in\n    tag_120:\n        /* \"#utility.yul\":4926:4951   */\n      swap2\n      pop\n        /* \"#utility.yul\":4965:4985   */\n      tag_121\n        /* \"#utility.yul\":4983:4984   */\n      dup4\n        /* \"#utility.yul\":4965:4985   */\n      tag_54\n      jump\t// in\n    tag_121:\n        /* \"#utility.yul\":4960:4985   */\n      swap3\n      pop\n        /* \"#utility.yul\":5004:5005   */\n      dup3\n        /* \"#utility.yul\":4994:5029   */\n      tag_122\n      jumpi\n        /* \"#utility.yul\":5009:5027   */\n      tag_123\n      tag_62\n      jump\t// in\n    tag_123:\n        /* \"#utility.yul\":4994:5029   */\n    tag_122:\n        /* \"#utility.yul\":5050:5051   */\n      dup3\n        /* \"#utility.yul\":5047:5048   */\n      dup3\n        /* \"#utility.yul\":5043:5052   */\n      mod\n        /* \"#utility.yul\":5038:5052   */\n      swap1\n      pop\n        /* \"#utility.yul\":4882:5058   */\n      swap3\n      swap2\n      pop\n      pop\n      jump\t// out\n\n    auxdata: 0xa264697066735822122021dda4af829196d38a22bc64ece2077509b8e596ede697a81f536bccc66efcab64736f6c634300081a0033\n}\n",
				"bytecode": {
					"linkReferences": {},
					"object": "6080604052348015600e575f80fd5b505f808190555061051d806100225f395ff3fe608060405234801561000f575f80fd5b5060043610610060575f3560e01c80631003e2d2146100645780631dc05f17146100805780633e823f791461009c578063c6888fa1146100b8578063de292789146100d4578063e27fd8ec146100f2575b5f80fd5b61007e60048036038101906100799190610253565b61010e565b005b61009a60048036038101906100959190610253565b610128565b005b6100b660048036038101906100b19190610253565b610142565b005b6100d260048036038101906100cd9190610253565b61019e565b005b6100dc6101b8565b6040516100e9919061028d565b60405180910390f35b61010c60048036038101906101079190610253565b6101c0565b005b805f8082825461011e91906102d3565b9250508190555050565b805f808282546101389190610306565b9250508190555050565b5f8103610184576040517f08c379a000000000000000000000000000000000000000000000000000000000815260040161017b90610393565b60405180910390fd5b805f8082825461019491906103de565b9250508190555050565b805f808282546101ae919061040e565b9250508190555050565b5f8054905090565b5f8103610202576040517f08c379a00000000000000000000000000000000000000000000000000000000081526004016101f990610499565b60405180910390fd5b805f8082825461021291906104b7565b9250508190555050565b5f80fd5b5f819050919050565b61023281610220565b811461023c575f80fd5b50565b5f8135905061024d81610229565b92915050565b5f602082840312156102685761026761021c565b5b5f6102758482850161023f565b91505092915050565b61028781610220565b82525050565b5f6020820190506102a05f83018461027e565b92915050565b7f4e487b71000000000000000000000000000000000000000000000000000000005f52601160045260245ffd5b5f6102dd82610220565b91506102e883610220565b9250828201905080821115610300576102ff6102a6565b5b92915050565b5f61031082610220565b915061031b83610220565b9250828203905081811115610333576103326102a6565b5b92915050565b5f82825260208201905092915050565b7f43616e6e6f7420646976696465206279207a65726f00000000000000000000005f82015250565b5f61037d601583610339565b915061038882610349565b602082019050919050565b5f6020820190508181035f8301526103aa81610371565b9050919050565b7f4e487b71000000000000000000000000000000000000000000000000000000005f52601260045260245ffd5b5f6103e882610220565b91506103f383610220565b925082610403576104026103b1565b5b828204905092915050565b5f61041882610220565b915061042383610220565b925082820261043181610220565b91508282048414831517610448576104476102a6565b5b5092915050565b7f43616e6e6f742074616b65206d6f64756c7573206279207a65726f00000000005f82015250565b5f610483601b83610339565b915061048e8261044f565b602082019050919050565b5f6020820190508181035f8301526104b081610477565b9050919050565b5f6104c182610220565b91506104cc83610220565b9250826104dc576104db6103b1565b5b82820690509291505056fea264697066735822122021dda4af829196d38a22bc64ece2077509b8e596ede697a81f536bccc66efcab64736f6c634300081a0033",
					"opcodes": "PUSH1 0x80 PUSH1 0x40 MSTORE CALLVALUE DUP1 ISZERO PUSH1 0xE JUMPI PUSH0 DUP1 REVERT JUMPDEST POP PUSH0 DUP1 DUP2 SWAP1 SSTORE POP PUSH2 0x51D DUP1 PUSH2 0x22 PUSH0 CODECOPY PUSH0 RETURN INVALID PUSH1 0x80 PUSH1 0x40 MSTORE CALLVALUE DUP1 ISZERO PUSH2 0xF JUMPI PUSH0 DUP1 REVERT JUMPDEST POP PUSH1 0x4 CALLDATASIZE LT PUSH2 0x60 JUMPI PUSH0 CALLDATALOAD PUSH1 0xE0 SHR DUP1 PUSH4 0x1003E2D2 EQ PUSH2 0x64 JUMPI DUP1 PUSH4 0x1DC05F17 EQ PUSH2 0x80 JUMPI DUP1 PUSH4 0x3E823F79 EQ PUSH2 0x9C JUMPI DUP1 PUSH4 0xC6888FA1 EQ PUSH2 0xB8 JUMPI DUP1 PUSH4 0xDE292789 EQ PUSH2 0xD4 JUMPI DUP1 PUSH4 0xE27FD8EC EQ PUSH2 0xF2 JUMPI JUMPDEST PUSH0 DUP1 REVERT JUMPDEST PUSH2 0x7E PUSH1 0x4 DUP1 CALLDATASIZE SUB DUP2 ADD SWAP1 PUSH2 0x79 SWAP2 SWAP1 PUSH2 0x253 JUMP JUMPDEST PUSH2 0x10E JUMP JUMPDEST STOP JUMPDEST PUSH2 0x9A PUSH1 0x4 DUP1 CALLDATASIZE SUB DUP2 ADD SWAP1 PUSH2 0x95 SWAP2 SWAP1 PUSH2 0x253 JUMP JUMPDEST PUSH2 0x128 JUMP JUMPDEST STOP JUMPDEST PUSH2 0xB6 PUSH1 0x4 DUP1 CALLDATASIZE SUB DUP2 ADD SWAP1 PUSH2 0xB1 SWAP2 SWAP1 PUSH2 0x253 JUMP JUMPDEST PUSH2 0x142 JUMP JUMPDEST STOP JUMPDEST PUSH2 0xD2 PUSH1 0x4 DUP1 CALLDATASIZE SUB DUP2 ADD SWAP1 PUSH2 0xCD SWAP2 SWAP1 PUSH2 0x253 JUMP JUMPDEST PUSH2 0x19E JUMP JUMPDEST STOP JUMPDEST PUSH2 0xDC PUSH2 0x1B8 JUMP JUMPDEST PUSH1 0x40 MLOAD PUSH2 0xE9 SWAP2 SWAP1 PUSH2 0x28D JUMP JUMPDEST PUSH1 0x40 MLOAD DUP1 SWAP2 SUB SWAP1 RETURN JUMPDEST PUSH2 0x10C PUSH1 0x4 DUP1 CALLDATASIZE SUB DUP2 ADD SWAP1 PUSH2 0x107 SWAP2 SWAP1 PUSH2 0x253 JUMP JUMPDEST PUSH2 0x1C0 JUMP JUMPDEST STOP JUMPDEST DUP1 PUSH0 DUP1 DUP3 DUP3 SLOAD PUSH2 0x11E SWAP2 SWAP1 PUSH2 0x2D3 JUMP JUMPDEST SWAP3 POP POP DUP2 SWAP1 SSTORE POP POP JUMP JUMPDEST DUP1 PUSH0 DUP1 DUP3 DUP3 SLOAD PUSH2 0x138 SWAP2 SWAP1 PUSH2 0x306 JUMP JUMPDEST SWAP3 POP POP DUP2 SWAP1 SSTORE POP POP JUMP JUMPDEST PUSH0 DUP2 SUB PUSH2 0x184 JUMPI PUSH1 0x40 MLOAD PUSH32 0x8C379A000000000000000000000000000000000000000000000000000000000 DUP2 MSTORE PUSH1 0x4 ADD PUSH2 0x17B SWAP1 PUSH2 0x393 JUMP JUMPDEST PUSH1 0x40 MLOAD DUP1 SWAP2 SUB SWAP1 REVERT JUMPDEST DUP1 PUSH0 DUP1 DUP3 DUP3 SLOAD PUSH2 0x194 SWAP2 SWAP1 PUSH2 0x3DE JUMP JUMPDEST SWAP3 POP POP DUP2 SWAP1 SSTORE POP POP JUMP JUMPDEST DUP1 PUSH0 DUP1 DUP3 DUP3 SLOAD PUSH2 0x1AE SWAP2 SWAP1 PUSH2 0x40E JUMP JUMPDEST SWAP3 POP POP DUP2 SWAP1 SSTORE POP POP JUMP JUMPDEST PUSH0 DUP1 SLOAD SWAP1 POP SWAP1 JUMP JUMPDEST PUSH0 DUP2 SUB PUSH2 0x202 JUMPI PUSH1 0x40 MLOAD PUSH32 0x8C379A000000000000000000000000000000000000000000000000000000000 DUP2 MSTORE PUSH1 0x4 ADD PUSH2 0x1F9 SWAP1 PUSH2 0x499 JUMP JUMPDEST PUSH1 0x40 MLOAD DUP1 SWAP2 SUB SWAP1 REVERT JUMPDEST DUP1 PUSH0 DUP1 DUP3 DUP3 SLOAD PUSH2 0x212 SWAP2 SWAP1 PUSH2 0x4B7 JUMP JUMPDEST SWAP3 POP POP DUP2 SWAP1 SSTORE POP POP JUMP JUMPDEST PUSH0 DUP1 REVERT JUMPDEST PUSH0 DUP2 SWAP1 POP SWAP2 SWAP1 POP JUMP JUMPDEST PUSH2 0x232 DUP2 PUSH2 0x220 JUMP JUMPDEST DUP2 EQ PUSH2 0x23C JUMPI PUSH0 DUP1 REVERT JUMPDEST POP JUMP JUMPDEST PUSH0 DUP2 CALLDATALOAD SWAP1 POP PUSH2 0x24D DUP2 PUSH2 0x229 JUMP JUMPDEST SWAP3 SWAP2 POP POP JUMP JUMPDEST PUSH0 PUSH1 0x20 DUP3 DUP5 SUB SLT ISZERO PUSH2 0x268 JUMPI PUSH2 0x267 PUSH2 0x21C JUMP JUMPDEST JUMPDEST PUSH0 PUSH2 0x275 DUP5 DUP3 DUP6 ADD PUSH2 0x23F JUMP JUMPDEST SWAP2 POP POP SWAP3 SWAP2 POP POP JUMP JUMPDEST PUSH2 0x287 DUP2 PUSH2 0x220 JUMP JUMPDEST DUP3 MSTORE POP POP JUMP JUMPDEST PUSH0 PUSH1 0x20 DUP3 ADD SWAP1 POP PUSH2 0x2A0 PUSH0 DUP4 ADD DUP5 PUSH2 0x27E JUMP JUMPDEST SWAP3 SWAP2 POP POP JUMP JUMPDEST PUSH32 0x4E487B7100000000000000000000000000000000000000000000000000000000 PUSH0 MSTORE PUSH1 0x11 PUSH1 0x4 MSTORE PUSH1 0x24 PUSH0 REVERT JUMPDEST PUSH0 PUSH2 0x2DD DUP3 PUSH2 0x220 JUMP JUMPDEST SWAP2 POP PUSH2 0x2E8 DUP4 PUSH2 0x220 JUMP JUMPDEST SWAP3 POP DUP3 DUP3 ADD SWAP1 POP DUP1 DUP3 GT ISZERO PUSH2 0x300 JUMPI PUSH2 0x2FF PUSH2 0x2A6 JUMP JUMPDEST JUMPDEST SWAP3 SWAP2 POP POP JUMP JUMPDEST PUSH0 PUSH2 0x310 DUP3 PUSH2 0x220 JUMP JUMPDEST SWAP2 POP PUSH2 0x31B DUP4 PUSH2 0x220 JUMP JUMPDEST SWAP3 POP DUP3 DUP3 SUB SWAP1 POP DUP2 DUP2 GT ISZERO PUSH2 0x333 JUMPI PUSH2 0x332 PUSH2 0x2A6 JUMP JUMPDEST JUMPDEST SWAP3 SWAP2 POP POP JUMP JUMPDEST PUSH0 DUP3 DUP3 MSTORE PUSH1 0x20 DUP3 ADD SWAP1 POP SWAP3 SWAP2 POP POP JUMP JUMPDEST PUSH32 0x43616E6E6F7420646976696465206279207A65726F0000000000000000000000 PUSH0 DUP3 ADD MSTORE POP JUMP JUMPDEST PUSH0 PUSH2 0x37D PUSH1 0x15 DUP4 PUSH2 0x339 JUMP JUMPDEST SWAP2 POP PUSH2 0x388 DUP3 PUSH2 0x349 JUMP JUMPDEST PUSH1 0x20 DUP3 ADD SWAP1 POP SWAP2 SWAP1 POP JUMP JUMPDEST PUSH0 PUSH1 0x20 DUP3 ADD SWAP1 POP DUP2 DUP2 SUB PUSH0 DUP4 ADD MSTORE PUSH2 0x3AA DUP2 PUSH2 0x371 JUMP JUMPDEST SWAP1 POP SWAP2 SWAP1 POP JUMP JUMPDEST PUSH32 0x4E487B7100000000000000000000000000000000000000000000000000000000 PUSH0 MSTORE PUSH1 0x12 PUSH1 0x4 MSTORE PUSH1 0x24 PUSH0 REVERT JUMPDEST PUSH0 PUSH2 0x3E8 DUP3 PUSH2 0x220 JUMP JUMPDEST SWAP2 POP PUSH2 0x3F3 DUP4 PUSH2 0x220 JUMP JUMPDEST SWAP3 POP DUP3 PUSH2 0x403 JUMPI PUSH2 0x402 PUSH2 0x3B1 JUMP JUMPDEST JUMPDEST DUP3 DUP3 DIV SWAP1 POP SWAP3 SWAP2 POP POP JUMP JUMPDEST PUSH0 PUSH2 0x418 DUP3 PUSH2 0x220 JUMP JUMPDEST SWAP2 POP PUSH2 0x423 DUP4 PUSH2 0x220 JUMP JUMPDEST SWAP3 POP DUP3 DUP3 MUL PUSH2 0x431 DUP2 PUSH2 0x220 JUMP JUMPDEST SWAP2 POP DUP3 DUP3 DIV DUP5 EQ DUP4 ISZERO OR PUSH2 0x448 JUMPI PUSH2 0x447 PUSH2 0x2A6 JUMP JUMPDEST JUMPDEST POP SWAP3 SWAP2 POP POP JUMP JUMPDEST PUSH32 0x43616E6E6F742074616B65206D6F64756C7573206279207A65726F0000000000 PUSH0 DUP3 ADD MSTORE POP JUMP JUMPDEST PUSH0 PUSH2 0x483 PUSH1 0x1B DUP4 PUSH2 0x339 JUMP JUMPDEST SWAP2 POP PUSH2 0x48E DUP3 PUSH2 0x44F JUMP JUMPDEST PUSH1 0x20 DUP3 ADD SWAP1 POP SWAP2 SWAP1 POP JUMP JUMPDEST PUSH0 PUSH1 0x20 DUP3 ADD SWAP1 POP DUP2 DUP2 SUB PUSH0 DUP4 ADD MSTORE PUSH2 0x4B0 DUP2 PUSH2 0x477 JUMP JUMPDEST SWAP1 POP SWAP2 SWAP1 POP JUMP JUMPDEST PUSH0 PUSH2 0x4C1 DUP3 PUSH2 0x220 JUMP JUMPDEST SWAP2 POP PUSH2 0x4CC DUP4 PUSH2 0x220 JUMP JUMPDEST SWAP3 POP DUP3 PUSH2 0x4DC JUMPI PUSH2 0x4DB PUSH2 0x3B1 JUMP JUMPDEST JUMPDEST DUP3 DUP3 MOD SWAP1 POP SWAP3 SWAP2 POP POP JUMP INVALID LOG2 PUSH5 0x6970667358 0x22 SLT KECCAK256 0x21 0xDD LOG4 0xAF DUP3 SWAP2 SWAP7 0xD3 DUP11 0x22 0xBC PUSH5 0xECE2077509 0xB8 0xE5 SWAP7 0xED 0xE6 SWAP8 0xA8 0x1F MSTORE8 PUSH12 0xCCC66EFCAB64736F6C634300 ADDMOD BYTE STOP CALLER "
				},
				"gasEstimates": {
					"creation": {
						"codeDepositCost": "261800",
						"executionCost": "5311",
						"totalCost": "267111"
					},
					"external": {
						"add(uint256)": "infinite",
						"divide(uint256)": "infinite",
						"getResult()": "2498",
						"multiply(uint256)": "infinite",
						"percentage(uint256)": "infinite",
						"subtract(uint256)": "infinite"
					}
				},
				"methodIdentifiers": {
					"add(uint256)": "1003e2d2",
					"divide(uint256)": "3e823f79",
					"getResult()": "de292789",
					"multiply(uint256)": "c6888fa1",
					"percentage(uint256)": "e27fd8ec",
					"subtract(uint256)": "1dc05f17"
				}
			},
			"storageLayout": {
				"storage": [
					{
						"astId": 3,
						"contract": "contracts/Calculator.sol:Calculator",
						"label": "result",
						"offset": 0,
						"slot": "0",
						"type": "t_uint256"
					}
				],
				"types": {
					"t_uint256": {
						"encoding": "inplace",
						"label": "uint256",
						"numberOfBytes": "32"
					}
				}
			},
			"userdoc": {
				"kind": "user",
				"methods": {},
				"version": 1
			}
		}
	}
}